:020000040800F2
:1000000000000220898E00084D8A0008558A0008E9
:100010005D8A0008658A00086D8A000800000000FB
:10002000000000000000000000000000758A0008C9
:10003000838A000800000000918A00089F8A000857
:10004000D98E0008D98E0008D98E0008D98E0008F4
:10005000D98E0008D98E0008D98E0008D98E0008E4
:10006000D98E0008D98E0008D98E0008D98E0008D4
:10007000D98E0008D98E0008D98E0008B18A0008F0
:10008000D98E0008D98E0008D98E0008D98E0008B4
:10009000D98E0008D98E0008D98E0008D98E0008A4
:1000A000D98E0008D98E0008D98E0008D98E000894
:1000B000D98E0008D98E0008D98E0008D98E000884
:1000C000D98E0008D98E0008D98E0008D98E000874
:1000D000C58A0008D98A0008D98E0008D98E000880
:1000E000D98E0008D98E0008D98E0008D98E000854
:1000F000D98E0008D98E0008D98E0008D98E000844
:10010000D98E0008E58A0008D98E0008D98E00082B
:10011000D98E0008D98E0008D98E0008D98E000823
:10012000D98E0008D98E0008D98E0008F98A0008F7
:10013000D98E00080000000000000000D98E0008E1
:10014000D98E0008D98E0008D98E0008D98E0008F3
:10015000D98E00080D8B0008D98E0008D98E0008B2
:10016000D98E0008D98E0008D98E0008D98E0008D3
:10017000D98E0008D98E00080000000000000000A1
:08018000D98E0008D98E000899
:1001880010B5054C237833B9044B13B10448AFF3C9
:1001980000800123237010BD200000200000000013
:1001A8009C9B000808B5034B1BB103490348AFF3F8
:1001B800008008BD00000000240000209C9B00086F
:1001C8008168091A40683E394910C0F11000C0EB37
:1001D800011070470A0910B500EB42023E328260F6
:1001E80032F8023B01F00F015BBA1B048B4003603D
:1001F800826032F8024B64BA8C40234310390360A2
:10020800C0E9011210BD010307D5C0F34141C1EB9C
:100218000111FF4A11440F3906E0FD496FEA5042C7
:100228002D31920700D10F3180B201EB10300078E8
:10023800C0007047C0F34141012902D0032905D00D
:1002480007E0000305D44FF4107070474FF4C070F6
:1002580070474FF49060704730B50346084613F472
:10026800704F6FEA53441ED01846FFF7E3FF450965
:100278001846FFF7C8FF4FEAD0004543E448C3F3E8
:100288008121583050F8210068434FEA9020D90264
:1002980005D54FEA5000190301D54FEA5000A107D0
:1002A80001D120F00300990502D5A10701D0401C17
:1002B80030BD001D30BD01461E200A0300D40F20AA
:1002C800C1F38111032900D14010801C70470346F7
:1002D80000B5C0F34140012801D9042004E01846C4
:1002E800FFF7E9FF00F10400D90300D4801C00BD2A
:1002F8002DE9F041044600690D0023D0E1694F1B48
:10030800FFF7E5FFE16906460A18A069831A02D0DB
:10031800204601F0A7F8A069801BA061E069801B56
:10032800E061D4E90401FFF797FFE1690844E0615F
:10033800206BA8420DD3F9002046FFF74BFF0120A0
:10034800BDE8F0816169FFF787FFE1690844E06172
:10035800F5E707EB0501081A00D50020C100204683
:10036800FFF738FF0020EBE7416A33E710B5044692
:10037800A84B002084EA01021A420CD1012213463C
:1003880014F4704F00D0002311F4704F00D00022F5
:10039800934200D1012010BDA04A10B59E491160BA
:1003A800002140F6FF73B3EB105F04D047F6F173FA
:1003B800B3EB504F0CD183B20F24B4EB133F07D0EB
:1003C8006FEA90239B0703D0400C800700D00121DF
:1003D800106801EAE07010BD2DE9F0418846044636
:1003E800FFF7EEFEA1690646C0EBC107E16941F2DD
:1003F8001022404402EBC101884233D36FF002005F
:100408009EE7E1693046B6EBC10F00D3C800C508C6
:10041800A069A84200D805468DB1431B04D02A46DE
:100428000021204601F01EF8E069401BE061A06948
:10043800401BA061606A694200EBC10060626842CB
:1004480006EBC006A06904F13E03A0F2422118445D
:10045800D4E90D3249429847A1690144C000A1611D
:1004680007440AD04745CCDB31462046FFF7B2FEA9
:1004780006EB08006062002062E731462046FFF77D
:10048800A9FE6FF001005BE702688A4002604268DB
:100498001144416070472DE9F04704465F48002544
:1004A8004FF00108C0F808800168491CFAD1A06A19
:1004B80040F2E17790B14FF498712046FFF78CFF36
:1004C80000287ED16169E56AE069B94201D1216BF2
:1004D8000844C1002046FFF77DFE3BE060684042CB
:1004E80000F007012046FFF7CFFF2046FFF768FE20
:1004F800E169B0EBC10F01D9C108E1616169B94295
:100508000FD0E169C0EBC10640F6F870864206DDFF
:100518000646C0EBC1012046FFF75CFE02E0002E54
:1005280000DA0026F01706EB5070C010C4F82080DF
:10053800206306F598712046FFF74EFF00284AD140
:100548006069B84214D12046FFF73AFEC008E16955
:10055800E0610D1A1021204600F026FF0646102102
:10056800204600F021FF40EA06464FF0000934E03B
:10057800E069AEE76DB1206B6D1E401C2063B0F5DD
:10058800007F02DB40F2FF1011E0E069401EE061ED
:100598000EE06069B84203D1216BE0690844E0616C
:1005A800C4F814902169484609B12062206120638B
:1005B8000821204600F0F8FE40EA0626E069401CC3
:1005C80000E008E0E0614FF488712046FFF704FF7F
:1005D80018B1C4E90A85BDE8F0873046FFF7DCFEAC
:1005E8000028C7D0216919B33046FFF7BFFE00289D
:1005F800C0D06069B84206D1A0EB05006061216BEC
:10060800E0690844E0612661F0030DD4102107E099
:10061800E0AC0008000CFEFF0000F0FF00300240D4
:10062800204600F0C1FEA0870020C4F82890D2E739
:1006380016F4704FDDD16761DBE700B50246FFF7BE
:10064800BFFDD169C0EBC10000BDC169491CC161D2
:100658000021016270470146F948C1F3812250F830
:1006680022000A0304D44FEA5000C90200D440080B
:1006780070472DE9F04F8A46814600F16601F04E39
:10068800032500201836EF4C08E0226836F8107071
:10069800524387EA2247BBB22260401C5045F4DD32
:1006A800180406EBD03C0122A2602068401CFBD154
:1006B8005B43236083464FF4907EA0460020724639
:1006C80001F801B93CF8024BD8F8003063409CB2FD
:1006D8002312E6B2704380302C46001203B930462C
:1006E800C7B2121A01F80179641EFAD15B1E002BF9
:1006F800F0DC002AE6D16D10E0D106224846BAF1B6
:10070800050F00DD082200F12801521E11F8013BF7
:1007180000F8013BF9D109F148010A7800F8012BEA
:1007280011F8012B002AF8D1BDE8F08F2DE9FF4F11
:1007380085B01D460698DDE9123100690390DFF89F
:1007480008A3D07A144628B1A07A0AF11C0A08B185
:100758000AF11C0A0398000310D5BB49A088103978
:10076800085C4FEA90018DF808108DF8091000F028
:1007780003008DF80A008DF80B0035E0039AA38872
:100788000020D20601D501B101204FF0000918B1AF
:100798004FF00C094FEA5303A94F0DF1080E533FD0
:1007A800A9494FF001085E3101EB090B18464FF0DB
:1007B8000301A34E1BF801205A3E08FB02F8B65C61
:1007C80017F802C0464346FA0CF606FB12000EF86C
:1007D80001003046491EECD509F10409B3EB0803C2
:1007E800DED5CA446FF00F03069ACDE900235346BD
:1007F80002AA2846059900F013FC207D02238107F0
:1008080000D40123E17A19B3608A00B3A07AC3F156
:10081800030205EB8000668A0768C6F3821606FAAB
:1008280002F63E440660668A4768C6F3C20606FAC0
:1008380002F63E444660668A876806F0070606FAAE
:1008480002F63E44866000F10C00C91EE3D10DE0BB
:1008580040070BD57C4A0020543205EB8001175C19
:10086800CE6A401C3E44CE620A28F6D3A17903988A
:100878006E39C0F34210032800D1891E002004E01D
:100888002A689A408A1A04C5401CA27AE67A324439
:100898008242F5DC09B047E72DE9F74F002501262C
:1008A800C2F3811B82B082460446BBF1030F00D01D
:1008B800022610030DD576000921039800F074FD77
:1008C8000090F11D039800F06FFD054640F283404B
:1008D80008E006F10801039800F066FDF04000907A
:1008E80040F6621080464FF00009BBF1030F00D1BB
:1008F8002D010C21039800F057FD20800921039851
:1009080000F052FDB0F5907F2CDC60800821039840
:1009180000F04AFDA071C8F30321039800F044FDDC
:10092800A080AAEB040707F1800060721620A0726D
:1009380084F80B900121039800F036FDA0B3032141
:10094800039800F031FD00F0010121724010E071C0
:100958004FF00702E2734FF03F02227402D00228E0
:1009680004D00EE04FF0FF3005B0DDE640F60F7022
:10097800054089B158376772C8F30310A0721E206A
:10098800E0720A21039800F00FFD4701092103983E
:1009980000F00AFD60821DE00820E0739737677257
:1009A80084F80A902720EBE7FFE784F8079084F89B
:1009B80008900F21039800F0F7FC074604210398DC
:1009C80000F0F2FCE0730321039800F0EDFC2074C2
:1009D8003F206074B80A2073C7F34410607307F0AF
:1009E8001F00A073A0880427B0F5FA7F00D2002763
:1009F80008F00F01039800F0D7FC38442075C5F3C0
:100A0800033060752D011634761E7FF46EAF0098A2
:100A1800AAE72DE9FF5F00F5EF57044650F8D81B09
:100A2800BB460290B1F1FF3F39DA4FF48071FFF70E
:100A3800D3FC58B16FF0010004B0BDE8F09F00008E
:100A48002CAD00080030024066AF0008D4F8E8007A
:100A5800C0F3C041C0F30052114401EB4101C0F39F
:100A680081200D1894F9D700A84206D0294604F130
:100A78007000FFF7FEFD84F8D750D4F8E82004F1A1
:100A880018000299FFF708FF011E02DA6FF0020052
:100A9800D2E70298FFF72CFCF8B100202060D4F8C8
:100AA800E8100120C1F38111032900D002208046FB
:100AB8002068DFF820964FEA600A00F001050AFB7B
:100AC800085000EB400101EBC00004EB400605EBC9
:100AD800C500183607EB002742E04FF0FF30ABE7C0
:100AE800B07AF17A0844A7EB800000F6FC00039086
:100AF80031880298FFF770FC00289DD1C5EBC5002E
:100B080000EB4510727D204442F6E4710844CDE9BB
:100B18000025DDE902133246FFF708FE0121C9F876
:100B28000810D9F80000401CF9D1DDE9021332465B
:100B3800384600F0AFFEC01B04EB45018010088268
:100B48000298FFF711FCC8F51071C9F80010216868
:100B5800C8F1030008446D1C163607F510672060BD
:100B68004545BDDBD9F80000D4F8E83000F00306AD
:100B78000AFB08F000EB400101EBC00004EB400564
:100B88001835C3F38110012817D113F0300F14D092
:100B9800218A608A814200D801466182218261B13E
:100BA800D80607D543F20B0021182A46584601F00B
:100BB800C5FC02E0584601F073FC04F58050CDE90D
:100BC80001604FF0000967E0287A002628B194F800
:100BD800D7000226022800D10426E87AC8B104EB1F
:100BE80049087042B8F8101000EBC00001EB400251
:100BF800687AA97A06EBC60708444119A6F1010AE2
:100C08000BEBC70001F0F2FB00EB4701A8F810104E
:100C180001E04FF01F0A04EB4900018A828A9142E1
:100C280000D90A468182113240F6396042434FEAC0
:100C38001248D04500DAC2460298D0F8947D4FB1E8
:100C4800E8790121D4F81031022800D000214A4661
:100C58005846B847BAF1000003DD0146584600F08F
:100C680025FD4046B8F1200F01DA401C8046B0450A
:100C780000DC701C009009EBC90004EBC011EB7993
:100C880001F556713246ABF1480001F07FFB09F1DE
:100C9800010916350BF5106B0199894594DBD4F8D9
:100CA800E8000003206802D5042802D004E00228E6
:100CB80002D14FF0FF3020604FF41070BCE62DE9F0
:100CC800F84F83460C46006900F0EDF9054600210F
:100CD8005846FFF70DFB4FF0000AFF4E94F80090BE
:100CE800E71CD046A8F10108B8F1000F06DC95F81A
:100CF800028095F801A015F9030B064451465846A1
:100D080000F052FB305C07F8010BA2784A4504DA80
:100D18005146584600F048FB305C617801B9002024
:100D280007F8010BB9F10109DCD1207804F143057A
:100D38004700E61CA9464FF0020816F8011B0620DA
:100D480051B1DBF8101040466FEA5141890703D0D2
:100D58000221584600F028FB05F8010B7F1EECD154
:100D680004F18403009320784A464300E11C584666
:100D780000F0DBF9A178E01C41B1627800EB420099
:100D8800401C002200F8022B491EFBD10020BDE8C0
:100D9800F88F2DE9F05F044600F1D80800F5567782
:100DA80041F698502618D8F8100001256FEA5040EF
:100DB800B146800700D003252068002811DA4FF4D7
:100DC8002071012D01D040F27C514046FFF704FB11
:100DD800002841D139464046FFF771FF00283BD132
:100DE8002060012D01D106EB80066FF0020B4FF455
:100DF800905A4046FFF721FC00282CDB514650450D
:100E080000DC01464046FFF7E7FA002824D12B46CC
:100E18003A464146304600F0F9F906462068001D7A
:100E280020600C2801DA012DE3D0216807F1840045
:100E3800891000EBC10108394A46384600F0A9F983
:100E480020680C2802D14FF0FF3020604046FFF7A1
:100E5800F4FB002801DA5846EFE54FF4C070ECE5E2
:100E6800002204C0491EFCD1704770B50546806851
:100E78000C461646904200D80646801BA860B6B1BC
:100E880041F69850334628446A6800F041FB686888
:100E980030446860D5F8E800C0F38110032806D113
:100EA800304602E021886180241D401EFAD2304677
:100EB80070BD70B50D460446164640F60E41FFF764
:100EC800CFFF8448012181600268521CFBD104F6DF
:100ED800944020F03F00E06004F58B70C4F8E00017
:100EE8001020C4F8DC00501E2060C4E9435384F885
:100EF800D70004F58054C4F8946D70BD2DE9FF4FF8
:100F08000446D0F8F880806881B00F4691460026E4
:100F180028B12046FFF7A9FF064607EB8007B14531
:100F280006D80498002876D0D4F8E80000286DD1B7
:100F380004F1D800009041F698504FF0010B04EBF3
:100F4800000A2068401C06D10098FFF7A4FAE8BB05
:100F58002068401E20605F49C1F808B00868401C3E
:100F6800FAD1D4F8E800C0F34140086001282046CF
:100F780008D0FFF70EFF0546D4F8F80000EA080885
:100F880018B113E0FFF745FDF5E7D4F8E800C0F322
:100F98004140012805D14FF4107104F55670FFF750
:100FA8005FFF40F292415046FFF75AFF002D05DAE5
:100FB800681C0CD0A81C27D0E81C0CD0D4F8E8007A
:100FC8005B46C0F3811003280AD108E01CE04FF00B
:100FD800FF30206016E00098FFF737FBF7E70023A3
:100FE8006A1104F10C01504602F002FA0020C4E92B
:100FF8000105A9EB060239462046FFF736FF0644ED
:1010080007EB8007B1459CD8049820B1424620469A
:10101800049900F079F93046A6E443F238007047A5
:101028002DE9FF5F04460F9F0D4693464FF00009D8
:10103800039810F8016B03901BF801AB0EB3380747
:1010480005D515F9010B761E01C4FAD119E05FEA3E
:101058000A0022D04FF0FF38002F04DA012101FAEC
:101068000AF1A1F1010851460E9800F09DF94FF0E0
:10107800FF31404500D0014605F8011B01C4761E2A
:10108800F1D109F101097F00B9F1040FD0DB00208B
:1010980020606060A060BDE8FF9F01C405F8010BF7
:1010A800761EFAD1EDE770B50B4B0D4604465C335E
:1010B800FFF7A9F8C4F38111C4F38126032901D0ED
:1010C8004FEA50006FEA5442920707D0220308D42F
:1010D800123315E000300240DCAE00081B3320223A
:1010E8000FE000B9C0201B22382805D20C330C228F
:1010F800022E06D0082204E0602802D3012E00D078
:101108001E222020CE0707D00020012904D1C4F3D5
:101118000110042101EB8000904200DB10462A7088
:101128006870101AA870184670BD2DE9FF5F0F4649
:101138000E9D90469A4618F8011B1320C84000F0EF
:101148000306042417F8010B361D00B900260021F8
:10115800DFF84CB20A4600EB400926420FD00621C0
:10116800009800F021F92B214143C9114A1D484438
:10117800A1EB810101440BEB810050F8181C2846B3
:101188000835C0E900126410E7D1BAF1010AD2D1DA
:1011980081E72DE9F74F4FF0020E0098009B90F879
:1011A80000805B7802F51060D3B1D1E900AB51F84B
:1011B800189FD1F804C018310C2440C8156809FBE1
:1011C80006F747FA0CF70AFB05F646FA0BF6C2F8DB
:1011D800007940C2641EF0D1183218305B1EE3E774
:1011E8000098BEF1010E83781046DDD100214046FB
:1011F80008F10108202807DA0C20C2F8001902C2F9
:10120800401EFAD11832F2E7BDE8FE8F2DE9FF4FF4
:1012180082B00420009003980399039A40680968F3
:1012280094684FF41079049ADDF808C0DDF810804E
:10123800127808F103084FEA420E059A0CEB820275
:10124800029218F8013B62460CEB890CFBB1059D34
:10125800112B1DDAA3F101074FF0010606FA07F674
:10126800A6F1010BC3F1200A21FA0AF601FA03F1EB
:10127800C01807D434F8027B7FBA07FA00F739435D
:10128800A0F11000A6EB0B0640C26D1EECD128E0C1
:10129800A3F111034FF00107424E07FA03FB07EBD6
:1012A8004B0A36F813300193AAEBEA0303F1020361
:1012B800C3F1200721FA07F601FA03F1C01805D493
:1012C80034F8023B5BBA834019431038019B7343DF
:1012D8005B0B03FB1A67A7EB0B0780C21E466D1E4C
:1012E800F4D1C9F11209BEF1010EAAD1009A521E19
:1012F800009298D1039A116003994860039884601A
:10130800029806B0BDE8F08F70B5D0F8E8600546E1
:1013180013460C46C6B33046FEF775FFA0600120A1
:10132800C6F38111032900D00220E060C6F34140D2
:10133800C0F1040020603046FFF78DF9236160603A
:10134800288A6061688AA0613046D5F8EC10FEF7FB
:1013580083FFD5F8F0100844D5F8F410C0004942CE
:1013680000EBC100E0613046FEF764FF02462062F0
:10137800286800280DDB2168032906D06021AB68A6
:101388001A4401FB102005E006E04FF410714010EC
:10139800F5E7A868606270BD0020086070BD0000B5
:1013A80004AE0008CCAC000890E80C005B1808D527
:1013B800C1F1200C02FA01F180E80A0022FA0CF0CF
:1013C8007047D0F808C04DF8044D3CF8024BC0F8FF
:1013D80008C064BAC1F1200C02FA01F104FA03F45E
:1013E80041EA0401A3F1100380E80A0022FA0CF094
:1013F8005DF8044B704710B5203A0CD321BFB1E813
:101408001850A0E81850B1E81850A0E8185028BFA4
:10141800B2F12002F2D25FEA027C24BFB1E8185090
:10142800A0E8185044BF18C918C0BDE810405FEACA
:10143800827C24BF51F8043B40F8043B08BF704746
:10144800D20748BF11F8012B24BF11F8013B11F84E
:1014580001CB48BF00F8012B24BF00F8013B00F87E
:1014680001CB704794461A4600EB0C03084403F17D
:101478003E0100F13E00032AE2D910F0030C14D01B
:1014880011F8013BBCF1020F624498BF11F801CB7F
:1014980000F8013B38BF11F8013BA2F1040298BFE4
:1014A80000F801CB38BF00F8013B11F00303A2D0CC
:1014B800121FC5D3A1EB0301D1F800C0022B0DD038
:1014C80019D84FEA1C2351F804CF121F43EA0C63C2
:1014D80040F8043BF5D201F10101B1E74FEA1C43A2
:1014E80051F804CF121F43EA0C4340F8043BF5D2ED
:1014F80001F10201A4E74FEA1C6351F804CF121F5F
:1015080043EA0C2340F8043BF5D201F1030197E7C5
:1015180010B5B3F5107F00F095804FEA621C00EB20
:101528008C0002F01F02C2F1200C02EBC20200EB99
:10153800C200B3EB0C0348BF9C4440F6FC025FEAD0
:101548005C0C28BF50F8484B0FF2D00E28BF41F86A
:10155800044B0CEB4C0CAEEB8C0CE74650F8484BAC
:1015680050F848CBA1E8101050F8484B50F848CB39
:10157800A1E8101050F8484B50F848CBA1E81010DB
:1015880050F8484B50F848CBA1E8101050F8484B99
:1015980050F848CBA1E8101050F8484B50F848CB09
:1015A800A1E8101050F8484B50F848CBA1E81010AB
:1015B80050F8484B50F848CBA1E8101050F8484B69
:1015C80050F848CBA1E8101050F8484B50F848CBD9
:1015D800A1E8101050F8484B50F848CBA1E810107B
:1015E80050F8484B50F848CBA1E8101050F8484B39
:1015F80050F848CBA1E8101050F8484B50F848CBA9
:10160800A1E8101050F8484B50F848CBA1E810104A
:1016180050F8484B50F848CBA1E81010A0EB020056
:10162800203B9BDA13F1200CD8BF10BD5FEA5C0C9D
:1016380024BF50F8484B41F8044B0CEB4C0CAEEB74
:101648008C0CE7462DE9E00F4FF0200EB0E8FC07C0
:101658000A60C1F88030C1F80041C1F88051C1F872
:101668000062C1F88072C1F80083C1F88093C1F8A4
:1016780000A4B0E8FC07C1F88024C1F80035C1F81F
:101688008045C1F80056C1F88066C1F80077C1F8F6
:101698008087C1F80098C1F880A8BEF1010E01F159
:1016A8000401D3D1BDE8E00F10BD00002DE9F04FD3
:1016B800DFF8B4E000F148009EE8FC5050E902ABC6
:1016C80090E800033BFB02883AFB039938FB12BB06
:1016D80039FB13AAC3443BFB02883AFB039940E950
:1016E80002ABA0E8000350E906AB90E800033BFB1F
:1016F80004883AFB059938FB14BB39FB15AA3BFB58
:1017080004883AFB059940E906ABA0E8000350E9D4
:101718000AAB90E800033BFB06883AFB079938FBC5
:1017280016BB39FB17AA3BFB06883AFB079940E929
:101738000AABA0E8000350E90EAB90E800033BFBBE
:101748000C883AFB0E9938FB1CBB39FB1EAA3BFBE5
:101758000C883AFB0E9940E90EABE0E80C89491E6B
:10176800ACD1BDE8F08F0000E0AF000825FA0BF11E
:101778000844DFF86015832838BF51F8200019D2D3
:10178800A2FB0010A9F1050120FA01F0CBF121011B
:101798008D4028BF404276180EF1120E48BFF7461A
:1017A80037F8021B49BA01FA06F145EA0105A6F124
:1017B8001006F74630B4B0F5806FB8BFC00000F02F
:1017C8003F054FEA901001EB800113C9C5F14005B0
:1017D8002044A0EB4404A0EB410005FB00F004EB1F
:1017E800A01000FB05F501EBE514A2FB0450A9F1DC
:1017F8000D01B8BF091D20FA01F030BCCBF1210161
:101808008D4028BF404276180EF1120E48BF70472F
:1018180037F8021B49BA01FA06F145EA0105A6F1B3
:10182800100670474FF000004FF00001A8E80300D1
:10183800B4F18074FADCDFE0000000800000389822
:10184800000005B5000045D7DDF820A0DDF838E038
:101858000AF1010008900EEB0A03D87B1B7BDFF826
:1018680078E401F101014FEAD56A3EF813300144EA
:10187800029113F01F0B0CBF0FF21A110FF268211F
:101888005B090EBFAFF264010EEB430333F81AA0F5
:101898000A91C1E02DE9FF4F8CB080464FF000005F
:1018A80008905188537A0691134405930D98029332
:1018B80090E8E000A0E005FA01F5CEF1200025FA55
:1018C80000F000EB5A1A761833F81AA05FBF37F801
:1018D800020B40BAB040054358BF103E14EA5A0103
:1018E8005CD205FA0EF5C1F1200025FA00F000EBF4
:1018F8005A1A33F81AA0764414EA5A0E1CD205FA7A
:1019080001F5CEF1200025FA00F000EB5A1A33F861
:101918001AA00E4414EA5A0140D24FEA4515C1F103
:10192800200025FA00F000EB6A1033F810A006F149
:10193800050614EA5A0EBED316EB0E0605FA0EF586
:101948005FBF37F8020B40BAB040054358BF103E9E
:1019580014EA9A101FBF5CF82000761C20FA09F0E0
:101968005FEA450528BFD0F1000014EADA211FBF5D
:101978005CF82110761C21FA09F15FEA450528BFB9
:10198800D1F10001A8E80300B4F180744FEAD56AE8
:1019980033F81AA030DD14EA5A01BED3761805FAD6
:1019A80001F55FBF37F8020B40BAB040054358BF96
:1019B800103E14EA9A101FBF5CF82000761C20FA2B
:1019C80009F05FEA450528BFD0F1000014EADA21E2
:1019D8001FBF5CF82110761C21FA09F15FEA450562
:1019E80028BFD1F10001A8E803004FEAD56AB4F195
:1019F800807433F81AA0CEDCDDF818900599DDF86C
:101A08003CC0D9F1000480F2AB8011F8014B029878
:101A180005918142BFF418AFB9EB0409CDF81890CD
:101A2800B8BF4C44A4F101044FEA046404F10F0464
:101A38005CF804EBCDF83CC04FF01901A1EBAE09FE
:101A4800A6490EF00300DDF828E001EB801CF746FC
:101A58004FEA451525FA01F04FEA104000EB5A10FD
:101A680033F810A0761DC1F1100E14EA5A0142D2C3
:101A780005FA0EF525FA01F04FEA104000EB5A106E
:101A880033F810A016EB0E06C1F1100E5FBF37F841
:101A9800020B40BAB040054358BF103E14EA5A0141
:101AA80029D205FA0EF525FA01F04FEA104000EBAD
:101AB8005A1033F810A016EB0E06C1F1100E14EAF6
:101AC8005A0118D205FA0EF525FA01F04FEA10402E
:101AD80000EB5A1033F810A016EB0E06C1F1100EE9
:101AE80014EA5A0107D206E0AFF2B42151F82020D7
:101AF80014EA5A01ACD3761805FA01F55FBF37F836
:101B0800020B40BAB040054358BF103E14EA9A1081
:101B18000BD028BFFFF72AFE5CF8200006F101066B
:101B280020FA09F06D0028BF404248F8040B14EA77
:101B3800DA200BD028BFFFF719FE5CF8200006F169
:101B4800010620FA09F06D0028BF404248F8040B4E
:101B58004FEAD56AB4F1807433F81AA0C8DC4BE7B1
:101B68001CBF0FF20E0E5CF8040C40F0958000F0DC
:101B78008DF804F101040D9ADDF83890D2F824B0FC
:101B880002F13E02A7EB0202ABEBC20B0BF1100A0B
:101B980056455CDC4FEA0A4A99F814900AF1010AA2
:101BA80019F0010F18BF0FF2360318D108BF0FF252
:101BB80002036D0004D34FF00009761C23D416E00D
:101BC8000FF2F00E4FEAD5691EF809906D084FEA3A
:101BD800191E05FA0EF516EB0E0614D407E06FEA87
:101BE800157909F00F094FEA0515361D0BD437F89A
:101BF80002EB9EFA9EFEAAF5801A0EFA06FE45EA48
:101C08000E05A6F11006B6EB2A4F20DC641ED8BFDD
:101C180000F03CF81AEAD90218BF00F02AF81AEACC
:101C2800990B18BF00F02BF8A8E80408641ED8BF69
:101C380000F02CF81AEA590218BF00F01AF81AEA4C
:101C4800090B18BF00F01BF8A8E804089F460C9879
:101C580010B000F51060404598BFBDE8F08F4FF018
:101C680000014FF0000220E906004045FBD1BDE825
:101C7800F08F6D002CBF42420246761C70476D0003
:101C88002CBFC0F1000B8346761C704711F8014B3E
:101C98005CF8040B002CDAD04FEAA00B104A00F0D5
:101CA80003004FEA80101058CBF1190B20FA0BF003
:101CB800F74600006B6F6D6E67655959565653535A
:101CC8005A5A5C5C42424242414141414444444484
:101CD80048484848C4AF0008E09B0008D0B1000855
:101CE800D4B1000890C805694669D0E90A893D441D
:101CF800C5EB4707A8EB060808EB460635FB025379
:101D0800A6EB040504EB6604A3EB0404A4EB43066A
:101D180038FB0283C9EB070809EB6709A9EB03073E
:101D2800994434FB0C9935FB0B8836FB0A7739FB51
:101D38001C4438FB1B5537FB1A66A4EB090434FB1B
:101D48000C9935FB0B8836FB0A770B680C604C68DE
:101D58004D608D688E6033FB0A9934FB0B8835FB28
:101D68000C7739FB1A3338FB1B4437FB1C5533FB04
:101D78000A9934FB0B88A5EB070535FB0C777047F0
:101D88000FF29C0393E8101C04EB0242A0F1300010
:101D9800B1E8F00300E9F00300F13000FFF7A2FF1B
:101DA800A0F1380E8EE8B803FFF79CFFA0F1280ECB
:101DB8008EE8B803FFF796FF01E9B80301F10C01BB
:101DC800B1E8F003C5F10005C7F10007C9F1000942
:101DD80000E9F00300F13000FFF784FFA0F1380EAE
:101DE800C4F10004C9F10009C7F100078EE8B8037F
:101DF800FFF778FFA0F1280EC4F10004C9F100092B
:101E0800C7F100078EE8B803FFF76CFF01E9B803D4
:101E180001F10C01B2F50032BAD5A0F11800C3E205
:101E2800B4DDFFFFC71096DEEC32089EE656286444
:101E3800DFF84C454DF804ED04EB024E4EEA837E84
:101E4800DFF8A02500F1040078C82344A3EB440B75
:101E5800A6EB050AAAEB460C40F8103C40F80CCC5F
:101E6800B0E838102344A3EB4409ACEB0508A8EB11
:101E78004C0C40F8183C40F814CC88C8B0E8401026
:101E88003B44A3EB4707ACEB0606A6EB4C0C40F82B
:101E9800203C40F81CCC28C8B0E810102B44A3EB19
:101EA8004505ACEB0404A4EB4C0C40F8283C40F886
:101EB80024CC50F84439A4EB080CACEB0A0CA04431
:101EC800A244A3EB090403EB6903A5EB0709A9EBFB
:101ED8000B092F44AB4404EB6905A4EB09044DF846
:101EE800104D3CFB0ECC36FB0E66DFF89894ACEB3D
:101EF8000505A5EB4C0C37FB19743BFB0944ABEB10
:101F0800070B3BFB19BB37FB09F7DFF87C94ABEBFE
:101F1800070BA8EB0A0738FB09883AFB19AA37FB15
:101F280009AA3344BA4437FB1977A3EB4606A8EB52
:101F3800070904EB0B07A9EB0A085444A4EB4A0A67
:101F48001C44B244CB44ABEB4909B34499444744DD
:101F5800A7EB4808A7EB0607A8EB03082DE98001C3
:101F68004DF8049D4DF804BD20B44DF804CD2DE97D
:101F7800100490E8F80FC3F10003A4EB080CACEBD5
:101F88000A0CA044A244A3EB090403EB6903A5EBE4
:101F98000709A9EB0B092F44AB4404EB6905A4EB33
:101FA80009040B943CFB0ECC36FB0E66DFF8D49389
:101FB8006544A5EB4C0C37FB19743BFB0944ABEBB0
:101FC800070B3BFB19BB37FB09F7DFF8BC93ABEBFF
:101FD800070BA8EB0A0738FB09883AFB19AA37FB55
:101FE80009AA3344BA4437FB1977A3EB4606A8EB92
:101FF800070904EB0B07A9EB0A085444A4EB4A0AA7
:102008001C44B244CB44ABEB4909B344994447441C
:10201800A7EB4808A6EB0707A3EB08080997CDF834
:102028002880F14ABEF5010E00F1EA805FEA4E28E9
:1020380048BCB2E8800100B534FB07333AFB0866B8
:1020480033FB174436FB18AAA4EB030434FB07330D
:102058003AFB0866D1F800E00C60744601F12001F3
:10206800D1F800E0C1F800A0F246A1F11C0134FB50
:1020780008333AFB076633FB184436FB17AA34FBD0
:102088000833AAEB060A3AFB07663CBF5B42764276
:1020980040F828AC40F8246C40F8484C40F8043C20
:1020A8005DF804EB48BCB2E8800135FB07333CFB24
:1020B800086633FB175536FB18CCA5EB030535FB33
:1020C80007333CFB0866D1F800A041F8185B0D689F
:1020D80041F814C93AFB083335FB076633FB18AAE5
:1020E80036FB17553AFB0833A5EB060535FB0766A3
:1020F8003CBFCAF1000A6D4240F82C5C40F8206CE5
:1021080040F844AC40F8083C48BCB2E880013BFBCE
:10211800073339FB086633FB17BB36FB1899ABEB63
:10212800030B3BFB073339FB0866D1F800A041F8E5
:1021380010BBD1F800B041F80C993AFB08333BFBCF
:10214800076633FB18AA36FB17BB3AFB0833ABEB21
:10215800060B3BFB07663CBF5B42764240F830BC4F
:1021680040F81C6C40F840AC40F80C3CB2E8180150
:10217800BDE8C01E3AFB04663BFB08773CFB0399AD
:1021880036FB14AA37FB18BB39FB13CC3AFB0466A1
:102198003BFB08773CFB03990D6841F808ABD1F885
:1021A80000A041F804B9D1F800B041F814CB35FBD0
:1021B80008663AFB04773BFB039936FB185537FB57
:1021C80014AA39FB13BB35FB08663AFB04773BFBC3
:1021D80003993EBF6D42CAF1000AC9F1000940F8EF
:1021E80034AC40F8187C40F83C5C40F8106C40F87F
:1021F80038BC40F8149C00F14C003FF525AE00BDFA
:102208005FEA4E28A0F14800B1E8C8013CBF764219
:10221800C8F10008A0E8C801D1F8048051F8107985
:1022280038BFC8F10008C0F8048040F8387B48BCC3
:10223800B2E8800134FB07333AFB086633FB1744E6
:1022480036FB18AAA4EB030434FB07333AFB0866F1
:10225800B2E8800141F8204B0C68C1F800A0A24602
:1022680038BF5B423AFB0766A1F11C0136FB17AA8F
:1022780040F8043CAAEB060A3AFB076640F828AC8B
:1022880038BF764240F8246C48BC35FB07333CFB2A
:10229800086633FB175536FB18CCA5EB030535FB51
:1022A80007333CFB0866976841F8185B0D68C1F86E
:1022B80000C0AC463CFB0766A1F1140136FB17CC05
:1022C80040F8083C3CFB076638BFCCF1000C40F8EE
:1022D8002CCC40F8206C48BCB2E880013BFB0733AB
:1022E80039FB086633FB17BB36FB1899ABEB030BBE
:1022F8003BFB073339FB086652F80C7C41F810BBEE
:10230800D1F800B0C1F80090D94638BF5B4239FB1C
:102318000766A1F10C0136FB179940F80C3C39FB14
:10232800076640F8309C38BF764240F81C6CB2E82B
:102338001801BDE8C01E3AFB04663BFB08773CFB6E
:10234800039936FB14AA37FB18BB39FB13CC3AFBAD
:1023580004663BFB08773CFB0399A1E8001441F8AD
:1023680010BB38BFC9F1000940F8187C40F8149C2C
:1023780040F8106C00F14C003FF566AD00BD000060
:10238800B4DD3F40742C1BC48EA41CFC00F1480033
:10239800002A17D1009A2DE9F04F022B3FF4F0AC38
:1023A800FFF746FDA0F14C004FF000014FF000028E
:1023B8004FF000030EC00EC00EC00EC00EC00EC0FF
:1023C800BDE8F08F2DE9FC4F4FF00003FFF730FD1B
:1023D8000CBCDDF824C0D2EB0C0288BF001FDCD88F
:1023E800E0E70000F4B20008D0B200082DE9F04F91
:1023F80000EB820B5845034647D211F8035BDFF820
:1024080098C0DFF898E04FEA45053CF805C005EBB1
:102418004505A5F102065FEA0C4C30D01EF801AF65
:102428005FEA4C0CFAD3524603EB820797E80003A5
:1024380002EB4202B2EB460244BF12EB060212EB79
:10244800060203EB8207524518BF97E8300087E879
:10245800000311D002EB4202B2EB460244BF12EB7A
:10246800060212EB060203EB8207524518BF97E8F3
:10247800000387E83000DBD1BCF1000FCED103EBBD
:10248800860303F108035B45B7D3A3EB00004FEACB
:10249800A000BDE8F08F000000B30008F3B2000808
:1024A8002DE9F00900F5106201F1020189100ED240
:1024B80090E8180092E80018491E5B44A3EB4B0B08
:1024C8006444A4EB4C0C18C0A2E8001814DD90E892
:1024D800780092E88019491E3B44A3EB470744441F
:1024E800A4EB48085D44A5EB4B0B6644A6EB4C0CEB
:1024F80078C0A2E88019EADCBDE8F00970474FEA25
:10250800C3334FEAC232DBF800C0761E4FEA8C0CA8
:102518008CFB0301CBF800198CFB0201DBF804C02B
:102528004BF8041B4FEA8C0C8CFB0301CBF8001909
:102538008CFB02014BF8041BE5DCBBE02DE9F04FF6
:102548009A46937A92F80BC087B00DF1100803EB06
:102558000C07537A00F5106E4FF0020503EB020CDE
:102568006FF0000366464FF000040493059306934A
:1025780019E016F8019B73460EEBC90ED3F80090CC
:10258800B9F1000F06BFD3F80490B9F1000F48F86D
:10259800254003D103F108037345EFD36D1E48BFEF
:1025A800022504F10104BC42E3DB937A002B0FD02F
:1025B8000DF1100E9EE808407345D4BF059B049B9F
:1025C800DDF818E09E45A8BF069B06930593049383
:1025D800D37A1AF4002518BF0325002B0CBF012459
:1025E8000324A4F1010EA7EB0406434653F82E90EA
:1025F800A6EB0407B945B4BFCF572F46BEF1010E6D
:102608008F5506F10106F1D58346508B0F464FF0E2
:10261800020500F001024FF0010020EADA4100292A
:1026280002A880E8060014BF4021072101919CF808
:1026380000600CBFDFF89440DFF894401AF0200FD8
:1026480008BF241D0CF101094FF0000804A951F836
:10265800251017F9010B414523DA0199884220D248
:102668000299002902BF04EBC000028843883FF4A6
:1026780046AF039A00F101014FEA610101FA02F144
:1026880001F0030304EB43031B8822884FEAA101EE
:1026980010F0010F23FA01F31EBF10461A46034635
:1026A8002DE71AF0200F1EBF71005846FFF7F8FEFD
:1026B8000BEBC60B19F8016B6D1E48BF0225002EE7
:1026C80008F10108C2D107B0BDE8F08F50B3000887
:1026D80044B300084FEAB1110FB501F1805201F17E
:1026E80011014FEAB1614FEAB2624DF8642D4DF81D
:1026F800041D00F5906454F84819D4F8802450F863
:10270800483B54F848595CF804EB1344A3EB4202E5
:102718000D44A5EB410131FB0E222B44A3EB450BE5
:1027280032FB1E11029331FB0E2219910A92D0F846
:102738008014D4F8802450F8483B54F848595CF881
:1027480004EB1344A3EB42020D44A5EB410131FB1A
:102758000E222B44A3EB450A32FB1E11039331FBD7
:102768000E2218910B92D0F88014D4F8802450F8D7
:10277800483B54F848595CF804EB1344A3EB420275
:102788000D44A5EB410131FB0E222B44A3EB450977
:1027980032FB1E11049331FB0E2217910C92D0F8D4
:1027A8008014D4F8802450F8483B54F848595CF811
:1027B80004EB1344A3EB42020D44A5EB410131FBAA
:1027C8000E222B44A3EB450832FB1E11059331FB67
:1027D8000E2216910D92D0F88014D4F8802450F867
:1027E800483B54F848595CF804EB1344A3EB420205
:1027F8000D44A5EB410131FB0E222B44A3EB450709
:1028080032FB1E11069331FB0E2215910E92D0F861
:102818008014D4F8802450F8483B54F848595CF8A0
:1028280004EB1344A3EB42020D44A5EB410131FB39
:102838000E222B44A3EB450632FB1E110793A1EB96
:10284800020131FB0E2214910F92D0F88014D4F8B3
:10285800802450F8483B54F848595CF804EB13447A
:10286800A3EB42020D44A5EB410131FB0E222B44A0
:10287800A3EB450532FB1E110893A1EB020131FBC6
:102888000E2213911092D0F88014D4F88024036893
:10289800A0F2F81024685CF804EB1344A3EB42029E
:1028A8000C44A4EB410131FB0E222344A3EB440466
:1028B80032FB1E110993A1EB020131FB0E2212918A
:1028C8001192BCE80E4034FB01BB35FB02AA3BFB6E
:1028D80011443AFB125534FB01BB35FB02AA36FB07
:1028E800039937FB0E8839FB136638FB1E7736FBD6
:1028F8000399A7EB080737FB0E88CA44AAEB4909D6
:10290800C344ABEB4808A7EB040707EB4404A5EB6B
:102918000606A6EB45059CE80950D344ABEB4A0AEA
:102928003AFB0EAA3744A7EB460636FB0E6639FB80
:102938000C8835FB0C4438FB1C9934FB1C5539FBBF
:102948000C8835FB0C44B244AAEB4606A8EB0508F4
:1029580008EB4505A4EB0909A9EB440406BCC1F83A
:102968008060C1F88041C1F88092C1F88073C2F8D4
:1029780080A0C2F88081C2F88052C2F880B3BDE856
:10298800F00F4744A7EB48084E44A6EB49095544C5
:10299800A5EB4A0A5C44A4EB4B0B38FB00BB35445F
:1029A80039FB03AAA5EB46063BFB10883C443AFBDF
:1029B8001399A4EB470738FB00BB2C44A9EB0A0981
:1029C80039FB03AAA4EB450536FB0C77D344ABEBE4
:1029D8004A0A37FB1C66A9EB080909EB48083AFBC9
:1029E8000EAA38FB0E8836FB0C7735FB0E55C24411
:1029F800AAEB4808C6F10006C2F80081C2F80072C6
:102A0800C2F800B3C2F800440D601560C1F800A117
:102A1800C1F80062C1F80093BDE8F00F4744A7EB86
:102A280048084E44A6EB49095544A5EB4A0A5C44BC
:102A3800A4EB4B0B38FB00BB354439FB03AAA5EBD1
:102A480046063BFB10883C443AFB1399A4EB470726
:102A580038FB00BB2C44A9EB0A0939FB03AAA4EBF9
:102A6800450536FB0C77D344ABEB4A0A37FB1C66AB
:102A7800A9EB080909EB48083AFB0EAA38FB0E88AF
:102A880036FB0C7735FB0E55C244AAEB4808C2F852
:102A9800C0432DE9E00F0DF11C0B9BE8F00FA8EBEC
:102AA8000707A7EB4808A6EB090606EB4909AAEBB6
:102AB8000505A5EB4A0AA4EB0B0404EB4B0B38FB0A
:102AC80000BB354439FB03AAA5EB46063BFB10883F
:102AD8003C443AFB1399A4EB470738FB00BB2C4452
:102AE800A9EB0A0939FB03AAA4EB450536FB0C77C9
:102AF800D344ABEB4A0A37FB1C66A9EB080909EB80
:102B080048083AFB0EAA38FB0E8836FB0C7735FBD3
:102B18000E55C244AAEB4808C1F8C043BDE8185096
:102B28001D44C5EB430315640B64A7EB0404A4EB35
:102B38004707C1F8C041C1F84072B444ACEB46063F
:102B4800C2F84062C2F8C0C1BDE81810D644AEEB66
:102B58004A0AC2F8C0E0C2F840A15B44A3EB4B0BA1
:102B6800C1F84033C1F8C0B24444A4EB4808C1F8E6
:102B78004041C1F8C080CC44ACEB4909C2F8C0C29E
:102B8800C2F8409308B003984FEAB11101F07042BF
:102B9800DFF890C84FEA8111ACEBD26C02F1E04348
:102BA80001EB93673F6803F1805801EB986898E858
:102BB80020012F44A7EB0807BCE81040B1E8000F3C
:102BC80038FB047739FB14773AFB0E773BFB1E770B
:102BD800BCE81040B1E8000F38FB047739FB1477E4
:102BE8003AFB0E773BFB1E77BCE81040B1E8000FBC
:102BF80038FB047739FB14773AFB0E773BFB1E77DB
:102C0800BCE81040B1E8000F38FB047739FB1477B3
:102C18003AFB0E773BFB1E770CF1200C01F5717423
:102C280054F808AB54F808BBBCE820403AFB15F64A
:102C38003BFB1E6654F808AB54F808BBBCE82040C0
:102C48003AFB15663BFB1E6654F808AB54F808BB04
:102C5800BCE820403AFB15663BFB1E6654F808ABFF
:102C680054F83CB9BCE820403AFB15663BFB1E66AD
:102C780004EB936ADAF800A001EB92644FF4007158
:102C8800AAEB060606F5007607F5007726F38F26E9
:102C980027F38F2720F8487B00F5906323F8486CCA
:102CA80000F50763DFF880C7A4F108040FF20C08E9
:102CB80008EBD268D8F80080C7460000E52C000869
:102CC800C72D0008A12E00087B2F000855300008EA
:102CD8002F31000809320008E332000804F1080423
:102CE800F4E80289BCE82400D4E90CAB38FB0216EE
:102CF8003BFB12FE38FB12173BFB027739FB05EE54
:102D08003AFB156639FB15773AFB0577B4E80003FB
:102D1800BCE82400D4E908AB38FB02663BFB12EEA2
:102D280038FB12773BFB027739FB05EE3AFB156659
:102D380039FB15773AFB0577B4E80003BCE82400B3
:102D4800D4E904AB38FB02663BFB12EE38FB127782
:102D58003BFB027739FB05EE3AFB156639FB157725
:102D68003AFB057794E8000FBCE8240004F1280436
:102D780038FB12773BFB12EE3BFB027738FB02660F
:102D88000EEB6B0E07EB680739FB05EE3AFB156691
:102D980039FB15773AFB0577AEEB090E5644A7EBDE
:102DA8000A07A6EB0E064F4426F38F2627F38F2734
:102DB80020F8486B23F84879984291D1FCE2B4E8AE
:102DC800000FBCE824003AFB021639FB12FE3AFB5E
:102DD800121739FB02773BFB05EE38FB15663BFB08
:102DE800157738FB0577B4E80003BCE82400D4E97C
:102DF80008AB38FB02663BFB12EE38FB12773BFB55
:102E0800027739FB05EE3AFB156639FB15773AFB75
:102E18000577B4E80003BCE82400D4E904AB38FB28
:102E280002663BFB12EE38FB12773BFB027739FB5D
:102E380005EE3AFB156639FB15773AFB057794E8FA
:102E4800000FBCE8240004F1200438FB12773BFB98
:102E580012EE3BFB027738FB02660EEB6B0E07EBBC
:102E6800680739FB05EE3AFB156639FB15773AFB1F
:102E78000577AEEB090E5644A7EB0A07A6EB0E063C
:102E88004F4426F38F2627F38F2720F8486B23F823
:102E98004879984293D18FE2B4E8000FBCE8240047
:102EA8003AFB021639FB12FE3AFB121739FB02777E
:102EB8003BFB05EE38FB15663BFB157738FB0577C2
:102EC800B4E80003BCE8240054E908AB38FB026608
:102ED8003BFB12EE38FB12773BFB027739FB05EE22
:102EE8003AFB156639FB15773AFB0577B4E800031A
:102EF800BCE82400D4E904AB38FB02663BFB12EEC5
:102F080038FB12773BFB027739FB05EE3AFB156677
:102F180039FB15773AFB057794E8000FBCE82400E5
:102F280004F1200438FB12773BFB12EE3BFB0277DF
:102F380038FB02660EEB6B0E07EB680739FB05EEF4
:102F48003AFB156639FB15773AFB0577AEEB090EA8
:102F58005644A7EB0A07A6EB0E064F4426F38F2626
:102F680027F38F2720F8486B23F84879984293D1A4
:102F780022E2B4E8000FBCE824003AFB021639FB51
:102F880012FE3AFB121739FB02773BFB05EE38FBC2
:102F980015663BFB157738FB0577B4E80003BCE8FA
:102FA800240054E908AB38FB02663BFB12EE38FB01
:102FB80012773BFB027739FB05EE3AFB156639FBC6
:102FC80015773AFB0577B4E80003BCE8240054E918
:102FD8000CAB38FB02663BFB12EE38FB12773BFB6F
:102FE800027739FB05EE3AFB156639FB15773AFB94
:102FF800057794E8000FBCE8240004F1200438FBAE
:1030080012773BFB12EE3BFB027738FB02660EEBB6
:103018006B0E07EB680739FB05EE3AFB156639FBC3
:1030280015773AFB0577AEEB090E5644A7EB0A076E
:10303800A6EB0E064F4426F38F2627F38F2720F89A
:10304800486B23F84879984293D1B5E1B4E8000F6A
:10305800BCE824003AFB021639FB12FE3AFB1217B1
:1030680039FB02773BFB05EE38FB15663BFB157712
:1030780038FB0577B4E80003BCE8240054E908AB42
:1030880038FB02663BFB12EE38FB12773BFB0277FC
:1030980039FB05EE3AFB156639FB15773AFB0577E0
:1030A800B4E80003BCE8240054E90CAB38FB026622
:1030B8003BFB12EE38FB12773BFB027739FB05EE40
:1030C8003AFB156639FB15773AFB057774E80E89E4
:1030D800BCE82400F4E816AB38FB12773BFB12EE91
:1030E8003BFB027738FB02660EEB6B0E07EB6807BB
:1030F80039FB05EE3AFB156639FB15773AFB057780
:10310800AEEB090E5644A7EB0A07A6EB0E064F4492
:1031180026F38F2627F38F2720F8486B23F8487962
:10312800984293D148E1B4E8000FBCE824003AFB88
:10313800021639FB12FE3AFB121739FB02773BFBEA
:1031480005EE38FB15663BFB157738FB0577B4E8C9
:103158000003BCE8240054E908AB38FB02663BFBDB
:1031680012EE38FB12773BFB027739FB05EE3AFB90
:10317800156639FB15773AFB057774E80A89BCE8C8
:10318800240074E804AB38FB02663BFB12EE38FB04
:1031980012773BFB027739FB05EE3AFB156639FBE4
:1031A80015773AFB057794E8000FBCE8240004F192
:1031B800600438FB12773BFB12EE3BFB027738FBCF
:1031C80002660EEB6B0E07EB680739FB05EE3AFB60
:1031D800156639FB15773AFB0577AEEB090E5644B1
:1031E800A7EB0A07A6EB0E064F4426F38F2627F314
:1031F8008F2720F8486B23F84879984293D1DBE071
:10320800B4E8000FBCE824003AFB021639FB12FEB2
:103218003AFB121739FB02773BFB05EE38FB1566C4
:103228003BFB157738FB057774E80689BCE8240072
:1032380074E808AB38FB02663BFB12EE38FB1277EA
:103248003BFB027739FB05EE3AFB156639FB157730
:103258003AFB0577B4E80003BCE82400D4E904ABE2
:1032680038FB02663BFB12EE38FB12773BFB02771A
:1032780039FB05EE3AFB156639FB15773AFB0577FE
:1032880094E8000FBCE8240004F1600438FB1277CE
:103298003BFB12EE3BFB027738FB02660EEB6B0E34
:1032A80007EB680739FB05EE3AFB156639FB15771E
:1032B8003AFB0577AEEB090E5644A7EB0A07A6EBD7
:1032C8000E064F4426F38F2627F38F2720F8486BE6
:1032D80023F84879984293D16EE0B4E8000374E883
:1032E8000EABBCE824003AFB021639FB12FE3AFB8F
:1032F800121739FB02773BFB05EE38FB15663BFBE3
:10330800157738FB0577B4E80003BCE82400D4E956
:1033180008AB38FB02663BFB12EE38FB12773BFB2F
:10332800027739FB05EE3AFB156639FB15773AFB50
:103338000577B4E80003BCE82400D4E904AB38FB03
:1033480002663BFB12EE38FB12773BFB027739FB38
:1033580005EE3AFB156639FB15773AFB0577F4E875
:103368000289BCE82400F4E816AB38FB12773BFB73
:1033780012EE3BFB027738FB02660EEB6B0E07EB97
:10338800680739FB05EE3AFB156639FB15773AFBFA
:103398000577AEEB090E5644A7EB0A07A6EB0E0617
:1033A8004F4426F38F2627F38F2720F8486B23F8FE
:1033B8004879984291D1FFE70FBC00F1040003F16E
:1033C800040312F0010F06D0521EA1F100510BDDCB
:1033D8000FB4FFF782B9A2F101020FB4A1F1805234
:1033E80002F11102FFF77DB94FEAB1645DF804FB01
:1033F8002DE9FF4F09680346DFF830C0FFF76AF987
:103408000FBC0D680C60002B08BFBDE8F08F05F5F8
:10341800086100F1020300F51060FFF75BF9BDE8F1
:10342800F08F0000A8B3000808B40008E8B5000849
:1034380053B94AB9002908BF00281CBF4FF0FF3113
:103448004FF0FF3000F088B9ADF1080C6DE904CEFB
:1034580000F006F8DDF804E0DDE9022304B0704767
:103468002DE9F047089D8E4604468846002B4AD130
:103478008A42174662D9B2FA82F64EB1C6F12003E3
:1034880001FA06F820FA03F3B74043EA0808B44003
:103498004FEA174E1FFA87FCB8FBFEF1230C0EFB10
:1034A800118843EA084301FB0CF29A4209D9FB1838
:1034B80001F1FF3080F0EA809A4240F2E780023959
:1034C8003B449A1AA3B2B2FBFEF00EFB102243EA69
:1034D800024300FB0CFC9C4509D9FB1800F1FF32A4
:1034E80080F0D6809C4540F2D3803B44023840EAC5
:1034F8000140A3EB0C0300211DB1F3400022C5E9F4
:103508000032BDE8F0878B4205D90DB1C5E900014D
:1035180000210846F5E7B3FA83F1002946D173453F
:1035280002D3824200F20581841A6EEB0302012065
:103538009046002DE5D0C5E90048E2E7002A00F0F2
:103548009080B2FA82F6002E40F0A4808A1A030C0A
:103558004FEA174E80B2BCB20121B2FBFEFC0EFB53
:103568001C2243EA024304FB0CF29A4207D9FB18D7
:103578000CF1FF3802D29A4200F2E080C4469B1A4E
:10358800B3FBFEF20EFB123340EA034302FB04F4E2
:103598009C4207D9FB1802F1FF3002D29C4200F28C
:1035A800CA8002461B1B42EA0C40A5E7C1F120066F
:1035B8008B4022FA06F71F430EFA01F420FA06F3AD
:1035C8002EFA06FE4FEA1749234300FA01F81FFABC
:1035D80087FCBEFBF9F01C0C09FB10EE44EA0E4414
:1035E80000FB0CFEA64502FA01F209D93C1900F1CC
:1035F800FF3A80F09C80A64540F2998002383C440E
:10360800A4EB0E041FFA83FEB4FBF9F309FB134481
:103618004EEA044403FB0CFCA44508D93C1903F109
:10362800FF3E80F08280A4457FD9023B3C4443EAB8
:103638000040A4EB0C04A0FB02EC64457346E14691
:1036480062D35FD05DB1B8EB030264EB090404FAFE
:1036580006F622FA01F31E43CC40C5E900640021B6
:103668004FE7B1FBF2FC010C41EA0E4180B240EA9F
:1036780001423B4638463C46B846BE462026B1FB8A
:10368800F7F1A2EB080241EA0C4166E7014618E7A8
:1036980010462CE7C6F120022EFA02F3B740B140DB
:1036A80020FA02F24FEA174E0A43B3FBFEF8BCB207
:1036B8000EFB1833110C41EA034108FB04F9B04032
:1036C80089454FEA104380B23ED9791808F1FF3C8A
:1036D80001D289451FD8A1EB0901B1FBFEF909FB0D
:1036E80004F80EFB191192B242EA0142424529D26E
:1036F800BA1809F1FF31C4D24245C2D2A9F1020178
:103708003A44BEE7F0459DD2BEEB02036CEB070CD2
:103718000138E14696E7A7EB09094944A8F1020CEC
:10372800B1FBFEF909FB04F8DBE773467FE7504677
:1037380066E70846FDE63B44023A33E7ACF1020C83
:103748003B441CE749469CE7A1EB0901C446B1FB91
:10375800FEF909FB04F8C4E7704700BF02440346BA
:10376800934200D1704703F8011BF9E770B50D4D7E
:103778000D4C641BA4100026A64209D10B4D0C4C1D
:1037880006F008FA641BA4100026A64205D170BDF5
:1037980055F8043B98470136EEE755F8043B98473F
:1037A8000136F2E730B6000830B6000830B6000837
:1037B80034B6000880B400AF064BD3F88830054A09
:1037C80043F47003C2F8883000BFBD465DF8047B3F
:1037D800704700BF00ED00E080B588B000AF7860AA
:1037E8007B68002B01D1012328E17B6893F84130E5
:1037F800DBB2002B09D17B68002283F840207B686C
:10380800904A5A63786805F0AFF97B68022283F81A
:1038180041207B681B68DB697A68126823F47B6344
:1038280023F00F03D3617B681B6802221A627B684E
:103838005B69022B60D07B68DB68002B02D1102308
:103848007B6101E020237B617B689B68202B02D889
:103858007B695B007B61012001F0B0F9F8607B684F
:103868001B69B3F5007F25D17B68DB68002B10D07E
:103878007B699B00FA68B2FBF3F213469B00134482
:103888005B001A467B685B69B2FBF3F305333B6167
:103898001FE07B69DB00FA68B2FBF3F213469B007A
:1038A80013445B001A467B685B69B2FBF3F305338C
:1038B8003B610EE0FA687B69B2FBF3F213469B00AA
:1038C80013445B001A467B685B69B2FBF3F305336C
:1038D8003B613B695C4AA2FB0323DB083B613B6914
:1038E80003F00103BB613A69BB69D31A5B08FB614A
:1038F800BB691B02BB6103E00223FB610023BB61C0
:10390800FB69012B02D9FB69FF2B07D97B685B6C2C
:1039180043F010027B685A6401238FE07B681A69C0
:10392800BB6942EA03017B681B68FA690A431A62A9
:103938007B681B68DB6923F47B6323F00F037A68D9
:1039480051687A68926811437A68D26811437A6834
:1039580092690A431A437B681B6842F40062DA6181
:103968007B681B6A012B61D17B68384A5A637B6884
:103978001B68374A934201D1364B01E04FF0402390
:10398800DB697A68126832498A4201D1314A01E01A
:103998004FF0402223F47B6323F00F03D3617B684D
:1039A8001B682B4A934201D12A4B01E04FF0402378
:1039B80002221A627B681B68254A934201D1254B73
:1039C80001E04FF04023DB697B817B685B68B3F5DE
:1039D800007F03D07B685B68002B03D14FF48073B2
:1039E8003B6101E000233B613B699AB27B689B68BD
:1039F8009BB213439AB27B68DB689BB213439AB2BB
:103A08007B689B699BB213439AB27B8913439BB231
:103A180043F400637B817B681B680D4A934201D1A4
:103A28000C4B01E04FF040237A89DA617B68002271
:103A38005A647B68012283F8412000231846203706
:103A4800BD4680BD6F3B0008CDCCCCCC853C000882
:103A5800003800400034004080B582B000AF786084
:103A68007B685B6B7868984700BF0837BD4680BDA8
:103A780080B483B000AF786000BF0C37BD465DF8F6
:103A8800047B704780B483B000AF786000BF0C3708
:103A9800BD465DF8047B704780B483B000AF7860A2
:103AA80000BF0C37BD465DF8047B704780B582B017
:103AB80000AF78607B685B6A1A887B681B68DA608D
:103AC8007B685B6A9A1C7B685A627B685B8D9BB2D9
:103AD800013B9AB27B685A857B685B8D9BB2002B51
:103AE8000ED17B681B685A687B681B6822F0A002AD
:103AF8005A607B68012283F841207868FFF7B8FF95
:103B080000BF0837BD4680BD80B582B000AF786081
:103B18007B681B68DA687B68DB6A92B21A807B680C
:103B2800DB6A9A1C7B68DA627B685B8E9BB2013B1E
:103B38009AB27B685A867B685B8E9BB2002B0ED14B
:103B48007B681B685A687B681B6822F060025A60B1
:103B58007B68012283F841207868FFF793FF00BF54
:103B68000837BD4680BD80B586B000AF78607B68F9
:103B78001B689B687B617B6893F84130DBB2042B40
:103B88003AD17B6903F00103012B09D17B681B68DB
:103B98005B6803F04003402B02D17868FFF7B4FF5D
:103BA8007B6903F04003402B26D17B681B685B6868
:103BB80003F02003202B1FD17B681B685A687B68A1
:103BC8001B6822F060025A6000233B617B681B6817
:103BD800DB683B617B681B689B683B613B697B6872
:103BE800012283F841207B685B6C43F002027B680A
:103BF8005A647868FFF750FF7B6893F84130DBB26E
:103C0800032B36D17B6903F00203022B09D17B68B1
:103C18001B685B6803F08003802B02D17868FFF78C
:103C280045FF7B6903F00803082B22D17B681B68DA
:103C38005B6803F02003202B1BD17B681B685A6844
:103C48007B681B6822F0A0025A600023FB607B6837
:103C58001B689B68FB60FB687B68012283F8412036
:103C68007B685B6C43F004027B685A647868FFF7F2
:103C780013FF00BF1837BD4680BD000080B588B06F
:103C880000AF78607B681B689B68FB617B681B687A
:103C9800924A934201D1924B01E04FF040239B6836
:103CA800BB617B681B685B687B617B681B688B4AB0
:103CB800934201D18A4B01E04FF040235B683B619E
:103CC8007B685B68B3F5007F04D07B685B68002B7A
:103CD80040F09980FB6903F00203022B07D17B694E
:103CE80003F08003002B02D0786800F025F9BB6947
:103CF80003F00103012B07D13B6903F04003002BBC
:103D080002D0786800F0C8F9BB6903F04003402B83
:103D18003AD13B6903F02003002B35D07B681B6840
:103D28006E4A934201D16E4B01E04FF040235A682E
:103D38007B681B6869498B4201D1694B01E04FF0F0
:103D4800402322F060025A607B681B685A687B68CF
:103D58001B6822F0A0025A600023FB607B681B6886
:103D6800DB68FB607B681B689B68FB60FB687B68A3
:103D7800012283F841207B685B6C43F002027B6878
:103D88005A647868FFF788FEFB6903F00803082B7C
:103D980040F0C3807B6903F02003002B00F0BD8056
:103DA8007B681B685A687B681B6822F0A0025A600F
:103DB8007B681B68494A934201D1494B01E04FF0A7
:103DC80040235A687B681B6844498B4201D1444BA5
:103DD80001E04FF0402322F060025A600023BB60EC
:103DE8007B681B689B68BB60BB687B68012283F8A3
:103DF80041207B685B6C43F004027B685A647868F6
:103E0800FFF74AFE89E0BB6903F00203022B07D1E2
:103E18003B6903F08003002B02D0786800F0BEF8FD
:103E2800FB6903F00103012B07D17B6903F0400311
:103E3800002B02D0786800F0FDF8FB6903F040031E
:103E4800402B2FD17B6903F02003002B2AD07B68FD
:103E58001B685A687B681B6822F060025A607B689E
:103E68001B681E4A934201D11D4B01E04FF04023CD
:103E78005A687B681B6819498B4201D1184B01E0CD
:103E88004FF0402322F0A0025A607B68012283F899
:103E980041207B685B6C43F002027B685A64786857
:103EA800FFF7FAFDBB6903F00803082B36D13B691D
:103EB80003F02003002B31D07B681B68074A93422C
:103EC80001D1074B01E04FF040235A687B681B681B
:103ED80002498B4206D1024B06E000BF0038004081
:103EE800003400404FF0402322F0A0025A607B6863
:103EF8001B685A687B681B6822F060025A607B68FE
:103F0800012283F841207B685B6C43F004027B68E4
:103F18005A647868FFF7C0FD00E000BF00BF203793
:103F2800BD4680BD80B483B000AF786000BF0C3759
:103F3800BD465DF8047B704780B582B000AF7860FD
:103F48007B685B6A991C7A6851621A887B681B686F
:103F5800DA607B685B8D9BB2013B9AB27B685A85BD
:103F68007B685B8D9BB2002B13D17B681B685A68FA
:103F78007B681B6822F0A0025A607B685B8E9BB24C
:103F8800002B06D17B68012283F841207868FFF76F
:103F9800C9FF00BF0837BD4680BD000080B582B0AC
:103FA80000AF78607B685B6A991C7A6851621988EF
:103FB8007B681B681D4A934201D11D4B01E04FF0FD
:103FC80040230A46DA607B685B8D9BB2013B9AB25C
:103FD8007B685A857B685B8D9BB2002B21D17B68FF
:103FE8001B68124A934201D1114B01E04FF0402364
:103FF8005A687B681B680D498B4201D10C4B01E064
:104008004FF0402322F0A0025A607B685B8E9BB27F
:10401800002B06D17B68012283F841207868FFF7DE
:1040280081FF00BF0837BD4680BD00BF0038004093
:104038000034004080B582B000AF78607B681B68B0
:10404800D8687B68DB6A991C7A68D16282B21A8068
:104058007B685B8E9BB2013B9AB27B685A867B6811
:104068005B8E9BB2002B13D17B681B685A687B68F8
:104078001B6822F060025A607B685B8D9BB2002B44
:1040880006D17B68012283F841207868FFF74AFF50
:1040980000BF0837BD4680BD80B582B000AF7860EC
:1040A8007B681B68204A934201D1204B01E04FF006
:1040B8004023D8687B68DB6A991C7A68D16282B22F
:1040C8001A807B685B8E9BB2013B9AB27B685A86EA
:1040D8007B685B8E9BB2002B21D17B681B68124AE0
:1040E800934201D1114B01E04FF040235A687B689D
:1040F8001B680D498B4201D10C4B01E04FF0402366
:1041080022F060025A607B685B8D9BB2002B06D15F
:104118007B68012283F841207868FFF703FF00BF1E
:104128000837BD4680BD00BF00380040003400405D
:1041380080B586B000AF78607B68002B01D1012381
:1041480067E27B681B6803F00103002B75D0884B7E
:104158009B6803F00C03042B0CD0854B9B6803F081
:104168000C03082B12D1824B5B6803F48003B3F570
:10417800800F0BD17E4B1B6803F40033002B5BD000
:104188007B685B68002B57D1012342E27B685B6840
:10419800B3F5803F06D1764B1B68754A43F48033EC
:1041A80013601DE07B685B68B3F5A02F0CD1704BE2
:1041B8001B686F4A43F4802313606D4B1B686C4A7D
:1041C80043F4803313600BE0694B1B68684A23F49F
:1041D80080331360664B1B68654A23F480231360A1
:1041E8007B685B68002B13D001F09AFB386108E00C
:1041F80001F096FB02463B69D31A642B01D90323CD
:1042080007E25B4B1B6803F40033002BF0D014E08B
:1042180001F086FB386108E001F082FB02463B6949
:10422800D31A642B01D90323F3E1514B1B6803F420
:104238000033002BF0D100E000BF7B681B6803F05F
:104248000203002B63D04A4B9B6803F00C03002B3E
:104258000BD0474B9B6803F00C03082B1CD1444B35
:104268005B6803F48003002B16D1414B1B6803F0F5
:104278000203002B05D07B68DB68012B01D00123EA
:10428800C7E13B4B1B6823F0F8027B681B69DB0026
:10429800374913430B603AE07B68DB68002B20D07A
:1042A800344B01221A6001F03BFB386108E001F051
:1042B80037FB02463B69D31A022B01D90323A8E135
:1042C8002B4B1B6803F00203002BF0D0284B1B6814
:1042D80023F0F8027B681B69DB00254913430B6058
:1042E80015E0244B00221A6001F01AFB386108E03F
:1042F80001F016FB02463B69D31A022B01D90323AE
:1043080087E11B4B1B6803F00203002BF0D17B688D
:104318001B6803F00803002B36D07B685B69002B11
:1043280016D0154B01221A6001F0FAFA386108E03C
:1043380001F0F6FA02463B69D31A022B01D903238E
:1043480067E10B4B5B6F03F00203002BF0D01BE01F
:10435800094B00221A6001F0E3FA38610EE001F01F
:10436800DFFA02463B69D31A022B07D9032350E12F
:104378000038024000004742800E4742884B5B6F7E
:1043880003F00203002BEAD17B681B6803F00403E7
:10439800002B00F097800023FB75814B1B6C03F00A
:1043A8008053002B0FD10023BB607D4B1B6C7C4AD4
:1043B80043F0805313647A4B1B6C03F08053BB604B
:1043C800BB680123FB75774B1B6803F48073002BD4
:1043D80018D1744B1B68734A43F48073136001F05F
:1043E8009FFA386108E001F09BFA02463B69D31A4C
:1043F800022B01D903230CE16A4B1B6803F4807379
:10440800002BF0D07B689B68012B06D1644B1B6F97
:10441800634A43F0010313671CE07B689B68052B24
:104428000CD15F4B1B6F5E4A43F0040313675C4B70
:104438001B6F5B4A43F0010313670BE0584B1B6F7C
:10444800574A23F001031367554B1B6F544A23F057
:10445800040313677B689B68002B15D001F060FA92
:1044680038610AE001F05CFA02463B69D31A41F26E
:104478008832934201D90323CBE0494B1B6F03F0E9
:104488000203002BEED014E001F04AFA38610AE08A
:1044980001F046FA02463B69D31A41F28832934248
:1044A80001D90323B5E03E4B1B6F03F00203002B39
:1044B800EED1FB7D012B05D1394B1B6C384A23F01B
:1044C800805313647B689B69002B00F0A180344BF8
:1044D8009B6803F00C03082B5CD07B689B69022B5C
:1044E80041D1314B00221A6001F01AFA386108E014
:1044F80001F016FA02463B69D31A022B01D90323AD
:1045080087E0274B1B6803F00073002BF0D17B6812
:10451800DA697B681B6A1A437B685B6A9B011A43EA
:104528007B689B6A5B08013B1B041A437B68DB6A58
:104538001B061B4913434B601B4B01221A6001F0F9
:10454800EFF9386108E001F0EBF902463B69D31A4C
:10455800022B01D903235CE0114B1B6803F00073A5
:10456800002BF0D054E0104B00221A6001F0D8F96B
:10457800386108E001F0D4F902463B69D31A022BEE
:1045880001D9032345E0064B1B6803F00073002B99
:10459800F0D13DE07B689B69012B07D1012338E00E
:1045A8000038024000700040600047421B4B5B68C7
:1045B800FB607B689B69012B28D0FB6803F48002B1
:1045C8007B68DB699A4221D1FB6803F03F027B6874
:1045D8001B6A9A421AD1FA6847F6C07313407A6880
:1045E800526A9201934211D1FB6803F440327B680E
:1045F8009B6A5B08013B1B049A4207D1FB6803F0E6
:1046080070627B68DB6A1B069A4201D0012300E0D6
:10461800002318461837BD4680BD00BF0038024049
:1046280080B584B000AF786039607B68002B01D119
:104638000123CCE0684B1B6803F007033A689A42F1
:104648000CD9654B3A68D2B21A70634B1B6803F0F9
:1046580007033A689A4201D00123B8E07B681B68D7
:1046680003F00203002B20D07B681B6803F00403CF
:10467800002B05D0594B9B68584A43F4E05393608C
:104688007B681B6803F00803002B05D0534B9B681D
:10469800524A43F460439360504B9B6823F0F00206
:1046A8007B689B684D4913438B607B681B6803F0EC
:1046B8000103002B44D07B685B68012B07D1474B73
:1046C8001B6803F40033002B19D101237FE07B68BA
:1046D8005B68022B03D07B685B68032B07D13F4BD9
:1046E8001B6803F00073002B09D101236FE03B4BDB
:1046F8001B6803F00203002B01D1012367E0374B4D
:104708009B6823F003027B685B68344913438B6022
:1047180001F006F9F8600AE001F002F90246FB68C8
:10472800D31A41F28832934201D903234FE02B4B2D
:104738009B6803F00C027B685B689B009A42EBD194
:10474800254B1B6803F007033A689A420CD2224BA8
:104758003A68D2B21A70204B1B6803F007033A6814
:104768009A4201D0012332E07B681B6803F00403FE
:10477800002B08D0194B9B6823F4E0527B68DB6858
:10478800164913438B607B681B6803F00803002BF2
:1047980009D0124B9B6823F460427B681B69DB00DD
:1047A8000E4913438B6000F021F802460B4B9B68BF
:1047B8001B0903F00F030A49CB5C22FA03F3094AE9
:1047C8001360094B1B68184601F066F80023184669
:1047D8001037BD4680BD00BF003C02400038024093
:1047E800B49B000800000020040000202DE9B04F11
:1047F80094B000AF00237B640023FB6400233B6478
:104808000023BB64794B9B6803F00C03082B0DD085
:10481800082B00F2E180002B02D0042B03D0DBE050
:10482800734BBB64DBE0734BBB64D8E06F4B5B68D6
:1048380003F03F037B646D4B5B6803F48003002B3C
:1048480063D06A4B5B689B090022BB63FA63BB6B4E
:10485800C3F308033B6300237B63D7E90C45224677
:104868002B464FF000004FF00001590141EAD26198
:10487800500102460B462146511A3961294663EB1D
:1048880001037B614FF000024FF00003D7E904AB4E
:1048980059468B01514643EA916351468A01514674
:1048A800B2EB0108594663EB01094FF000024FF0E3
:1048B80000034FEAC90343EA58734FEAC802904617
:1048C8009946234618EB0303BB602B4649EB0303C9
:1048D800FB604FF000024FF00003D7E9024529467C
:1048E8004B02214643EAD15321464A021046194653
:1048F8007B6C0022BB62FA62D7E90A23FEF798FDB7
:1049080002460B461346FB6458E0384B5B689B092C
:10491800002218461146C0F308033B6200237B625D
:10492800D7E9088942464B464FF000004FF0000196
:10493800590141EAD261500102460B464146B2EBA9
:10494800010A494663EB010B4FF000024FF00003E8
:104958004FEA8B1343EA9A634FEA8A12B2EB0A04CE
:1049680063EB0B054FF000024FF00003EB0043EA46
:104978005473E20014461D464346E3183B604B4619
:1049880045EB03037B604FF000024FF00003D7E9CB
:10499800004529468B02214643EA915321468A0263
:1049A800104619467B6C0022BB61FA61D7E90623E1
:1049B800FEF73EFD02460B461346FB640B4B5B6855
:1049C8001B0C03F0030301335B003B64FA6C3B6C84
:1049D800B2FBF3F3BB6402E0054BBB6400BFBB6CE6
:1049E80018465037BD46BDE8B08F00BF00380240BA
:1049F8000024F40000127A0080B586B000AF786019
:104A080000237B6100233B617B681B6803F0010383
:104A1800002B05D17B681B6803F00403002B35D0FD
:104A2800624B00221A6000F07BFF786108E000F01A
:104A380077FF02467B69D31A022B01D90323B0E022
:104A48005B4B1B6803F00063002BF0D17B685B684D
:104A58009A017B689B681B0755491343C1F884304A
:104A6800524B01221A6000F05BFF786108E000F009
:104A780057FF02467B69D31A022B01D9032390E022
:104A88004B4B1B6803F00063002BF0D07B681B685E
:104A980003F00203002B00F083800023FB60444BEB
:104AA8001B6C434A43F080531364414B1B6C03F067
:104AB8008053FB60FB683F4B1B683E4A43F480739E
:104AC800136000F02DFF786108E000F029FF02462E
:104AD8007B69D31A022B01D9032362E0354B1B688B
:104AE80003F48073002BF0D0314B1B6F03F4407339
:104AF8003B613B69002B2FD07B68DB6803F4407374
:104B08003A699A4228D02A4B1B6F23F440733B61C1
:104B1800294B01221A60284B00221A60244A3B695B
:104B28001367234B1B6F03F00103012B14D100F013
:104B3800F7FE78610AE000F0F3FE02467B69D31ABB
:104B480041F28832934201D903232AE0184B1B6FA4
:104B580003F00203002BEED07B68DB6803F440739C
:104B6800B3F5407F0DD1124B9B6823F4F8127B6894
:104B7800DB6823F0704323F440730D4913438B60C3
:104B880005E00B4B9B680A4A23F4F8139360084B23
:104B98001A6F7B68DB68C3F30B03054913430B6784
:104BA800002318461837BD4680BD00BF680047423D
:104BB8000038024000700040400E474280B487B081
:104BC80000AF786000237B6100233B610023FB601A
:104BD8000023BB607B68012B3FD1244B9B6803F407
:104BE8000003FB60FB68002B06D0FB68B3F5000FE1
:104BF8002FD11F4B7B612FE01C4B5B6803F48003B4
:104C0800B3F5800F08D1194B5B6803F03F03194ACD
:104C1800B2FBF3F33B6107E0144B5B6803F03F031F
:104C2800154AB2FBF3F33B61104BD3F884309B0970
:104C3800C3F308023B6902FB03F3BB600B4BD3F8D9
:104C480084301B0F03F00703BA68B2FBF3F37B61F0
:104C580002E000237B6100BF00E000BF7B691846CB
:104C68001C37BD465DF8047B704700BF0038024022
:104C78000080BB0000127A000024F40080B489B0E0
:104C880000AF7860396000237B6100233B6100231B
:104C9800BB610023FB616BE10122FB6902FA03F3AC
:104CA8007B613B681B687A6913403B613A697B69A1
:104CB8009A4240F05A813B685B6803F00303012B7A
:104CC80005D03B685B6803F00303022B30D17B6897
:104CD8009B68BB61FB695B00032202FA03F3DB43B9
:104CE800BA691340BB613B68DA68FB695B0002FA8A
:104CF80003F3BA691343BB617B68BA699A607B683E
:104D08005B68BB610122FB6902FA03F3DB43BA6902
:104D18001340BB613B685B681B0903F00102FB6938
:104D280002FA03F3BA691343BB617B68BA695A6034
:104D38003B685B6803F00303032B17D07B68DB68D1
:104D4800BB61FB695B00032202FA03F3DB43BA6928
:104D58001340BB613B689A68FB695B0002FA03F386
:104D6800BA691343BB617B68BA69DA603B685B6800
:104D780003F00303022B23D1FB69DA087B680832AE
:104D880053F82230BB61FB6903F007039B000F2235
:104D980002FA03F3DB43BA691340BB613B681A6943
:104DA800FB6903F007039B0002FA03F3BA69134394
:104DB800BB61FB69DA087B680832B96943F82210DD
:104DC8007B681B68BB61FB695B00032202FA03F383
:104DD800DB43BA691340BB613B685B6803F00302BD
:104DE800FB695B0002FA03F3BA691343BB617B6892
:104DF800BA691A603B685B6803F44033002B00F023
:104E0800B4800023FB60604B5B6C5F4A43F48043D3
:104E180053645D4B5B6C03F48043FB60FB685B4A47
:104E2800FB699B08023352F82330BB61FB6903F02E
:104E380003039B000F2202FA03F3DB43BA69134012
:104E4800BB617B68524A93422BD07B68514A93429C
:104E580025D07B68504A93421FD07B684F4A9342C3
:104E680019D07B684E4A934213D07B684D4A9342CF
:104E78000DD07B684C4A934207D07B684B4A9342DB
:104E880001D107230EE008230CE006230AE00523DE
:104E980008E0042306E0032304E0022302E00123E0
:104EA80000E00023FA6902F0030292009340BA6915
:104EB8001343BB613549FB699B080233BA6941F862
:104EC80023203B4B9B68BB613B69DB43BA691340BA
:104ED800BB613B685B6803F48013002B03D0BA699D
:104EE8003B691343BB61324ABB699360304BDB6853
:104EF800BB613B69DB43BA691340BB613B685B68D4
:104F080003F40013002B03D0BA693B691343BB6158
:104F1800274ABB69D360264B5B68BB613B69DB43AF
:104F2800BA691340BB613B685B6803F40033002B2C
:104F380003D0BA693B691343BB611D4ABB6953601F
:104F48001B4B1B68BB613B69DB43BA691340BB6100
:104F58003B685B6803F48033002B03D0BA693B6974
:104F68001343BB61124ABB691360FB690133FB61E0
:104F7800FB690F2B7FF690AE00BF00BF2437BD46FC
:104F88005DF8047B704700BF0038024000380140DC
:104F9800000002400004024000080240000C0240E9
:104FA800001002400014024000180240001C024099
:104FB800003C014080B485B000AF78600B467B8030
:104FC8007B681A697B881340002B02D00123FB738E
:104FD80001E00023FB73FB7B18461437BD465DF8E0
:104FE800047B704780B483B000AF78600B467B8049
:104FF80013467B707B78002B03D07A887B689A6194
:1050080003E07B881A047B689A6100BF0C37BD46B1
:105018005DF8047B7047000080B586B000AF78600B
:1050280000237B6100F07CFC38617B68002B01D198
:10503800012399E07B68022283F835207B680022EF
:1050480083F834207B681B681A687B681B6822F029
:1050580001021A600FE000F063FC02463B69D31AB4
:10506800052B08D97B6820225A657B68032283F8C0
:105078003520032378E07B681B681B6803F0010375
:10508800002BE8D17B681B681B687B617A69384B09
:1050980013407B617B685A687B689B681A437B680E
:1050A800DB681A437B681B691A437B685B691A4390
:1050B8007B689B691A437B68DB691A437B681B6AB8
:1050C80013437A6913437B617B685B6A042B07D1BE
:1050D8007B68DA6A7B681B6B13437A6913437B61CD
:1050E8007B681B687A691A607B681B685B697B61EF
:1050F8007B6923F007037B617B685B6A7A691343EA
:105108007B617B685B6A042B17D17B689B6A7A6931
:1051180013437B617B68DB6A002B0ED0786800F054
:105128000BFA0346002B08D07B6840225A657B683F
:10513800012283F83520012316E07B681B687A6911
:105148005A61786800F0C2F90346FB607B68DB6D42
:105158003F229A40FB689A607B6800225A657B6808
:10516800012283F83520002318461837BD4680BD34
:105178003F8010F080B483B000AF78607B6893F80C
:105188003530DBB2022B04D07B6880225A650123BC
:105198000CE07B68052283F835207B681B681A6859
:1051A8007B681B6822F001021A60002318460C373E
:1051B800BD465DF8047B704780B586B000AF786067
:1051C8000023BB608E4B1B688E4AA2FB03239B0AFD
:1051D8007B617B689B6D3B613B691B68FB607B68FF
:1051E800DB6D08229A40FB681340002B1AD07B68BD
:1051F8001B681B6803F00403002B13D07B681B6833
:105208001A687B681B6822F004021A607B68DB6DF1
:1052180008229A403B699A607B685B6D43F0010203
:105228007B685A657B68DB6D01229A40FB681340F6
:10523800002B12D07B681B685B6903F08003002B8E
:105248000BD07B68DB6D01229A403B699A607B68D2
:105258005B6D43F002027B685A657B68DB6D042254
:105268009A40FB681340002B12D07B681B681B68B0
:1052780003F00203002B0BD07B68DB6D04229A40FD
:105288003B699A607B685B6D43F004027B685A65F2
:105298007B68DB6D10229A40FB681340002B43D0DB
:1052A8007B681B681B6803F00803002B3CD07B68F5
:1052B800DB6D10229A403B699A607B681B681B680B
:1052C80003F48023002B18D07B681B681B6803F449
:1052D8000023002B08D17B681B6C002B24D07B6833
:1052E8001B6C786898471FE07B689B6C002B1BD071
:1052F8007B689B6C7868984716E07B681B681B681E
:1053080003F48073002B07D17B681B681A687B68DD
:105318001B6822F008021A607B681B6C002B03D004
:105328007B681B6C786898477B68DB6D20229A4005
:10533800FB681340002B00F08F807B681B681B689C
:1053480003F01003002B00F087807B68DB6D2022C0
:105358009A403B699A607B6893F83530DBB2052B3D
:1053680036D17B681B681A687B681B6822F01602B6
:105378001A607B681B685A697B681B6822F0800288
:105388005A617B681B6C002B03D17B689B6C002BDC
:1053980007D07B681B681A687B681B6822F00802C4
:1053A8001A607B68DB6D3F229A403B699A607B6894
:1053B800012283F835207B68002283F834207B683B
:1053C8001B6D002B7ED07B681B6D7868984779E051
:1053D8007B681B681B6803F48023002B1DD07B6847
:1053E8001B681B6803F40023002B0DD17B685B6CE2
:1053F800002B31D07B685B6C786898472CE000BF45
:1054080000000020B5814E1B7B68DB6B002B23D08E
:105418007B68DB6B786898471EE07B681B681B68B5
:1054280003F48073002B0FD17B681B681A687B68B4
:105438001B6822F010021A607B68012283F835206D
:105448007B68002283F834207B68DB6B002B03D059
:105458007B68DB6B786898477B685B6D002B32D084
:105468007B685B6D03F00103002B22D07B6805226B
:1054780083F835207B681B681A687B681B6822F0F4
:1054880001021A60BB680133BB607A699A4207D38C
:105498007B681B681B6803F00103002BF2D100E056
:1054A80000BF7B68012283F835207B68002283F8DF
:1054B80034207B68DB6C002B05D07B68DB6C78685C
:1054C800984700E000BF1837BD4680BD80B485B05E
:1054D80000AF78607B681B68DBB2103B144AA2FB04
:1054E80003231B09FB60134AFB6813441B781A4605
:1054F8007B68DA65FB68032B09D97B681B6823F492
:105508007F7323F003031A1D7B689A6507E07B68A5
:105518001B6823F47F7323F003037A6893657B6821
:105528009B6D18461437BD465DF8047B704700BF75
:10553800ABAAAAAACC9B000880B485B000AF78605B
:105548000023FB737B689B6ABB607B689B69002BAD
:105558001FD1BB68032B56D801A252F823F000BF15
:10556800795500088B550008795500080F56000832
:105578007B68DB6A03F08073002B46D00123FB7342
:1055880043E07B68DB6AB3F1C07F40D10123FB7342
:105598003DE07B689B69B3F5005F21D1BB68032BB5
:1055A80037D801A252F823F0C1550008C7550008A2
:1055B800C1550008D95500080123FB7330E07B680A
:1055C800DB6A03F08073002B25D00123FB7322E0F4
:1055D8007B68DB6AB3F1C07F1FD10123FB731CE03A
:1055E800BB68022B03D9BB68032B03D018E0012347
:1055F800FB7315E07B68DB6A03F08073002B0ED029
:105608000123FB730BE000BF0AE000BF08E000BF06
:1056180006E000BF04E000BF02E000BF00E000BFFA
:10562800FB7B18461437BD465DF8047B704700BF06
:1056380080B485B000AF78607B6803F00703FB6037
:105648000C4BDB68BB60BA684FF6FF031340BB60C6
:10565800FB681A02BB68134343F0BF6343F400338B
:10566800BB60044ABB68D36000BF1437BD465DF811
:10567800047B704700ED00E080B400AF044BDB68AA
:105688001B0A03F007031846BD465DF8047B704704
:1056980000ED00E080B483B000AF0346FB7197F9DA
:1056A8000730002B0BDBFB7903F01F02074997F942
:1056B80007305B09012000FA02F241F8232000BFFD
:1056C8000C37BD465DF8047B704700BF00E100E081
:1056D80080B483B000AF03463960FB7197F9073097
:1056E800002B0ADB3B68DAB20C4997F90730120144
:1056F800D2B20B4483F800230AE03B68DAB20849C7
:10570800FB7903F00F03043B1201D2B20B441A7663
:1057180000BF0C37BD465DF8047B704700E100E030
:1057280000ED00E080B489B000AFF860B9607A603D
:10573800FB6803F00703FB61FB69C3F10703042B54
:1057480028BF0423BB61FB690433062B02D9FB691C
:10575800033B00E000237B614FF0FF32BB6902FA94
:1057680003F3DA43BB681A407B699A404FF0FF3174
:105778007B6901FA03F3D9437B680B40134318464E
:105788002437BD465DF8047B7047000080B582B0C1
:1057980000AF78607B68013BB3F1807F01D30123C0
:1057A8000FE00A4A7B68013B53600F214FF0FF303E
:1057B800FFF78EFF054B00229A60044B07221A6000
:1057C800002318460837BD4680BD00BF10E000E042
:1057D80080B582B000AF78607868FFF729FF00BF16
:1057E8000837BD4680BD80B586B000AF0346B960B6
:1057F8007A60FB7300237B61FFF73EFF78617A686C
:10580800B9687869FFF78EFF024697F90F3011469D
:105818001846FFF75DFF00BF1837BD4680BD80B54D
:1058280082B000AF0346FB7197F907301846FFF7BF
:1058380031FF00BF0837BD4680BD80B582B000AFDC
:1058480078607868FFF7A2FF034618460837BD4618
:1058580080BD000080B500AF0E4B1B680D4A43F4B5
:10586800007313600B4B1B680A4A43F48063136090
:10587800084B1B68074A43F4807313600320FFF743
:10588800A7FF0F2000F008F803F046F90023184698
:1058980080BD00BF003C024080B582B000AF786098
:1058A800124B1A68124B1B7819464FF47A73B3FBE4
:1058B800F1F3B2FBF3F31846FFF7BFFF0346002BE3
:1058C80001D001230EE07B680F2B0AD800227968EB
:1058D8004FF0FF30FFF787FF064A7B68136000230D
:1058E80000E0012318460837BD4680BD00000020AF
:1058F800080000200400002080B400AF064B1B788D
:105908001A46064B1B681344044A136000BFBD4681
:105918005DF8047B704700BF080000203C000020B1
:1059280080B400AF034B1B681846BD465DF8047B86
:10593800704700BF3C00002080B584B000AF78609D
:10594800FFF7EEFFB8607B68FB60FB68B3F1FF3FD1
:1059580005D00A4B1B781A46FB681344FB6000BF4E
:10596800FFF7DEFF0246BB68D31AFA689A42F7D8F7
:1059780000BF00BF1037BD4680BD00BF0800002033
:1059880080B400AF044B9B6803F00C031846BD4677
:105998005DF8047B704700BF0038024080B400AF58
:1059A800044B9B6803F0F0031846BD465DF8047B82
:1059B800704700BF0038024080B400AF044B9B68BA
:1059C80003F4E0531846BD465DF8047B704700BFFA
:1059D8000038024080B400AF044B9B6803F4604376
:1059E8001846BD465DF8047B704700BF003802408A
:1059F80080B400AF044B5B6803F480031846BD46CF
:105A08005DF8047B704700BF0038024080B400AFE7
:105A1800044B5B689B09C3F308031846BD465DF851
:105A2800047B70470038024080B400AF044B5B68C9
:105A380003F440331846BD465DF8047B704700BF49
:105A48000038024080B400AF044B5B6803F03F03AA
:105A58001846BD465DF8047B704700BF0038024019
:105A680080B582B000AF786000F020F802467B680D
:105A78001A607B681B68184600F040F802467B688D
:105A88005A607B685B68184600F04EF802467B68EF
:105A98009A607B685B68184600F05AF802467B6893
:105AA800DA6000BF0837BD4680BD000080B582B00F
:105AB80000AF00237B60FFF763FF0346082B0CD081
:105AC800082B0FD8002B02D0042B03D00AE0094B77
